:020000040800F2
:100000007807002029020008B71E0008131D000809
:10001000B51E00083B040008FF2200080000000095
:10002000000000000000000000000000BB1E0008EF
:100030003D04000800000000B91E0008BD1E0008B5
:10004000430200084302000843020008430200087C
:10005000430200084302000843020008430200086C
:10006000430200084302000843020008430200085C
:10007000430200084302000843020008430200084C
:10008000430200084302000843020008430200083C
:10009000430200084302000843020008430200082C
:1000A000430200084302000843020008430200081C
:1000B0004302000843020008691F000843020008C9
:1000C00043020008430200084302000843020008FC
:1000D00043020008430200084302000843020008EC
:1000E00043020008430200084302000843020008DC
:1000F00043020008430200084302000843020008CC
:1001000043020008430200084302000843020008BB
:1001100043020008430200084302000843020008AB
:10012000430200084302000843020008430200089B
:10013000430200084302000843020008430200088B
:10014000430200084302000843020008430200087B
:10015000430200084302000843020008430200086B
:10016000430200084302000843020008430200085B
:100170004302000843020008430200080000000098
:10018000430200084302000800F002F800F03CF8C7
:100190000AA090E8000C82448344AAF10107DA45E2
:1001A00001D100F031F8AFF2090EBAE80F0013F0F8
:1001B000010F18BFFB1A43F0010318475C3E000013
:1001C0007C3E0000103A24BF78C878C1FAD85207A4
:1001D00024BF30C830C144BF04680C6070470000C1
:1001E0000023002400250026103A28BF78C1FBD840
:1001F000520728BF30C148BF0B6070471FB503F0DE
:100200003DFE1FBD10B510BD00F0E2F81146FFF72E
:10021000F5FF02F0F1FF00F000F903B4FFF7F2FF81
:1002200003BC00F003F90000094880470948004773
:10023000FEE7FEE7FEE7FEE7FEE7FEE7FEE7FEE796
:10024000FEE7FEE704480549054A064B70470000F3
:10025000591F000889010008780100207807002054
:10026000780300207803002053EA020C00F0698034
:100270002DE9F04B4FF00006002B1FBFB3FA83F5BA
:1002800003FA05F424FA05F65E4012BF1643B2FAEB
:1002900082F502FA05F4C5F120051EBF22FA05FC1D
:1002A00044EA0C04203556EA044C4FEA144418BFC3
:1002B000641C4FF000084FF00009904271EB030CF2
:1002C00039D3002919BFB1FA81F701FA07F6B0FA5C
:1002D00080F700FA07F6C7F120071EBF20FA07FCD7
:1002E00046EA0C062037B6FBF4FCA7EB0507103FE7
:1002F00007F01F0BCBF120060CFA0BFB2CFA06F6CD
:1003000044BFB3460026202FA4BF5E464FF0000B2B
:100310005BEA060C08BF4FF0010B19EB0B09ABFBB6
:10032000027C48EB0608C01B06FB02CC0BFB03CC8F
:1003300071EB0C01C1E70B46024641464846BDE859
:10034000F08B13B54FF000004FF00001AFF30080C9
:10035000BDE81C4070474FF0000200B513469446BC
:100360009646203922BFA0E80C50A0E80C50B1F10D
:100370002001BFF4F7AF090728BFA0E80C5048BF21
:100380000CC05DF804EB890028BF40F8042B08BFBF
:10039000704748BF20F8022B11F0804F18BF00F8BB
:1003A000012B704770477047704710B500F008F890
:1003B000006810BD10B5044600F002F8046010BDDE
:1003C00000487047180100200048704718010020BD
:1003D0007546FFF7F9FFAE4605006946534620F023
:1003E0000700854618B020B5FFF72CFFBDE8204078
:1003F0004FF000064FF000074FF000084FF0000BE1
:1004000021F00701AC46ACE8C009ACE8C009ACE893
:10041000C009ACE8C0098D46704710B50446AFF37B
:1004200000802046BDE81040FFF7F7BE01491820C4
:10043000ABBEFEE7260002007047FEE770470000F3
:100440002DE9F84FDFF8BCA10022012503264FF06B
:100450000F090AF1040BAAF1040E00BF0B6805FA9C
:1004600002F42340A34270D10F7907F00307012F54
:1004700001D0022F16D187684FEA420806FA08FC1D
:1004800027EA0C07D1F80CC00CFA08FC4CEA070C60
:10049000C0F808C04768A7430C79C4F3001494401F
:1004A0003C4344600C79E443A4070AD0C4684FEA93
:1004B000420C06FA0CF7BC438F6807FA0CF7274387
:1004C000C7600C7904F00304022C12D1D40800EBAD
:1004D000840CDCF820405707FF0E09FA07F824EADD
:1004E0000804D1F8108008FA07F848EA0408CCF8A4
:1004F000208004684FEA420C06FA0CF7BC430F79DF
:1005000007F0030707FA0CF7274307604C6814F459
:10051000403F70D03C4C276847F4804727602468F0
:1005200022F0030704F480440094384C07EB040CD9
:10053000DCF8084897074FEA177809FA08F7BC4330
:10054000334FB84202D1002724E054E0314FB84283
:1005500001D101271EE0304FB84201D1022719E036
:100560002E4FB84201D1032714E02D4FB84201D1DC
:1005700004270FE02B4FB84201D105270AE02A4F8C
:10058000B84201D1062705E0284FB84201D107271C
:1005900000E0082707FA08F72743CCF80878DAF8CC
:1005A00000405746D1F804C09C435FEACC2C00D5EC
:1005B0001C433C60DBF800405F46D1F804C09C431C
:1005C0005FEA8C2C00D51C433C60DEF80040774687
:1005D000D1F804C09C435FEA8C3C00D51C433C60CE
:1005E000084F083F3C68D1F804C09C435FEACC3C0C
:1005F00000D51C433C60521C102AFFF42FAFBDE80D
:10060000F88F0000083C01404438024000300140AF
:10061000000002400004024000080240000C0240BA
:10062000001002400014024000180240001C02406A
:100630000AB1816170470904FBE700000148806846
:100640007047000078000020024881680278114459
:1006500081607047780000200B4810B5016841F4B4
:1006600000710160016841F480610160016841F43A
:1006700080710160032000F06FF80F2000F006F891
:1006800000F024F8002010BD003C024070B50D4D74
:1006900004464FF47A712878B1FBF0F00A490968F2
:1006A000B1FBF0F000F0EAFA48B9102C07D20022B2
:1006B0002146501E00F030F800206C6070BD012013
:1006C00070BD000078000020840000200A4808B5B2
:1006D000016841F480410160006800F480400090AE
:1006E0000548001F016841F080510160006800F07A
:1006F0008050009008BD000044380240002809DB0B
:1007000000F01F02012191404009800000F1E0202B
:10071000C0F8001170470000F0B40E4B1B680C4687
:10072000C3F30223C3F10705042D00D90425191DC5
:10073000072901D2002300E0DB1E012606FA05F19D
:10074000491E214099409E40761E16403143F0BC20
:1007500001F0EEBD0CED00E0064900F0070208686C
:100760004FF6FF03184040EA0220034A1043086096
:10077000704700000CED00E00000FA052DE9F0479D
:100780000E46050065D0DFF81481D8F80000F7B2F6
:1007900000F00700B04207D288F80070D8F80000D7
:1007A00000F00700B04254D128683D4C810712D5B3
:1007B000400703D5206840F4E05020602878000707
:1007C00003D5206840F4604020602068A96820F0CC
:1007D000F000084320602878C0072DD030496868B1
:1007E0000839012812D0022813D0032811D0096833
:1007F000890700292DDA216821F0030101432160D6
:10080000FFF71CFF814641F2883A0EE00968890330
:10081000EFE709688901ECE7FFF710FFA0EB09019A
:10082000514502D90320BDE8F0872068696800F0CF
:100830000C00B0EB810FEFD1D8F80010404601F06A
:100840000701B14207D90770006800F00700B04205
:1008500001D00120E7E72878400705D52068E9683E
:1008600020F4E050084320602878000706D520686F
:10087000296920F4604040EAC100206000F018F8C7
:100880002168084AC1F30311515CC8400649086059
:1008900006480068FFF7FAFE0020C4E7003C02406B
:1008A00008380240763F0008840000207C000020C9
:1008B000154810B5006810F00C02144813D0411010
:1008C000042A0FD0082A0ED10F4C241F2268236857
:1008D00002F03F025B0207D52068C0F38810A0FB3E
:1008E000010106E0084610BD2168C1F38811A1FB93
:1008F00000010023FFF7B8FC2168C1F30141491C46
:100900004900B0FBF1F010BD083802400024F400AB
:100910002DE9F84F04006ED02078DFF84C93C00723
:10092000A9F104054AD009F104000168C1F381016D
:10093000012908D00068C0F3810002280AD1D9F843
:100940000000400206D52868800337D5606800287B
:10095000E1D033E06068B0F5803F10D0B0F5A02F53
:10096000286810D020F480302860286820F4802087
:1009700028606068A8B1FFF761FE06460DE02868B0
:1009800040F48030F4E740F480202860F7E700BFAF
:10099000FFF754FE801B642873D828688003F7D5BE
:1009A0000CE0FFF74BFE064605E000BFFFF746FEF2
:1009B000801B6428F0D828688003F7D42078DFF8FB
:1009C000AC8280074FF0000A3ED5A748001D0168A1
:1009D00011F00C0F08D00068C0F3810002280BD181
:1009E000D9F80000400207D42868800716D5E068CF
:1009F000012800D112E033E1E068B8B10120C8F865
:100A00000000FFF71BFE064605E000BFFFF716FEDD
:100A1000801B0228C0D828688007F7D5286821697C
:100A200020F0F80040EAC10028600DE0C8F800A0FE
:100A3000FFF704FE064604E0FFF700FE801B0228D5
:100A40001FD828688007F7D42078000722D5864F62
:100A500087486169703771B101210160FFF7EEFDD0
:100A6000064604E0FFF7EAFD801B022809D8386833
:100A70008007F7D50EE0C0F800A0FFF7DFFD0646BF
:100A800005E082E0FFF7DAFD801B02287DD8386898
:100A90008007F7D42078400768D5DFF8CCB100276D
:100AA0000BF13C0BDBF80000C0000BD4DBF80010AE
:100AB00041F08051CBF80010DBF80000012700F076
:100AC000805000906B4E3068C00510D4306840F400
:100AD00080703060FFF7B2FD009005E0FFF7AEFDDB
:100AE0000099401A022850D83068C005F6D55E4EED
:100AF000A0686C3601280FD00528306810D020F08F
:100B000001003060306820F004003060A068B8B1A7
:100B1000FFF794FD00900FE0306840F00100F4E72B
:100B200040F004003060F7E7FFF788FD0099411AB4
:100B300041F28830814266D830688007F4D50EE0F3
:100B4000FFF77CFD009007E0FFF778FD0099411A60
:100B500041F28830814256D830688007F4D42FB1F2
:100B6000DBF8001021F08051CBF80010A069C8B369
:100B70003D49091D0968C1F3810102294AD00228B3
:100B8000504607D0C8F8600000E03CE0FFF756FD93
:100B900004463BE04746C8F86000FFF74FFD0646B5
:100BA00005E000BFFFF74AFD801B02282BD828680C
:100BB0008001F7D4D4E907010843A16A2E4A490805
:100BC00002EB0141626A41EA8211084394F82C1059
:100BD00040EA0161C9F8001001203866FFF72EFDD8
:100BE000044606E03EE000BFFFF728FD001B022898
:100BF00009D828688001F7D534E000BFFFF71EFD53
:100C0000001B022802D90320BDE8F88F2868800164
:100C1000F4D427E00128F7D0D9F80000E26900F405
:100C2000800191421CD1226A00F03F01914217D10C
:100C300047F6C071626A0140B1EB821F10D1A26A0F
:100C40004FF0FF3300F4403103EB5202B1EB024F9F
:100C500006D194F82C1000F07060B0EB016F01D059
:100C60000120D1E70020CFE70438024000004742CE
:100C7000800E4742007000400000FFFF10B5401E8C
:100C8000B0F1807F01D3012010BD4FF0E0246061FE
:100C90000F21601701F04CFB0020A06107202061AC
:100CA000002010BD7047704770B590F83C20012AB5
:100CB00032D0012480F83C40022280F83D200368B5
:100CC0005A689D6822F070060A6832435A60134BD6
:100CD00002689A4214D0B2F1804F11D0104B9A4260
:100CE0000ED0104B9A420BD00F4B9A4208D00F4BAC
:100CF0009A4205D00E4B9A4202D00E4B9A4204D132
:100D0000496825F080031943916080F83D40002137
:100D100080F83C10084670BD022070BD0000014004
:100D20000004004000080040000C004000040140A6
:100D3000004001400018004010B5040003D094F8B2
:100D40003D0010B107E0012010BD002084F83C00F8
:100D5000204600F01FF8022084F83D00211D206885
:100D600001F008F9012084F8460084F83E0084F878
:100D70003F0084F8400084F8410084F8420084F881
:100D8000430084F8440084F8450084F83D000020C6
:100D900010BD000008B50068B0F1804F08D10548CB
:100DA000016841F001010160006800F0010000905D
:100DB00008BD00004038024070B5044690F83C0081
:100DC0000025012817D0012684F83C60022084F811
:100DD0003D002068826822F0770222F47F42826020
:100DE0000868502838D00DDC20284FD005DC90B39F
:100DF000102811D14AE0022070BD302846D040288A
:100E00000AD13BE060282FD070280DD0B0F5805F6C
:100E100003D0B0F5005F12D0012584F83D600020BA
:100E200084F83C00284670BDCB68D1E901212068D8
:100E300001F011F92068816841F0770109E0CB6881
:100E4000D1E90121206801F006F92068816841F4A8
:100E500080418160E1E719E0CA684968206801F0D3
:100E6000CFF95021206806E0CA684968206801F07F
:100E700019FA6021206801F0F8F8CEE7CA684968DD
:100E8000206801F0BDF940212068F4E7226801469E
:100E90001046F0E72DE9F04F04462DED0C8B81B0A4
:100EA000007F9FEDF49B01269FEDF4DB9FEDF5CBDA
:100EB0009FEDF6AB9FEDF7BB00279FEDF88BF94D4B
:100EC00001287DD1687810B1012813D030E20021CB
:100ED000204600F008FF02F08BFCC5E902016E70AD
:100EE0002068016A21F00A0101622068016A41F06C
:100EF000020192E00021204600F0F5FE02F078FCAD
:100F000041EC100B85ED040B95ED021B53EC112BFE
:100F100002F0BCFD95ED020B53EC102B95ED040B8C
:100F200051EC100B02D202F0BFFE14E002F074FC90
:100F300013D295ED020B51EC1D0B53EC102B02F06C
:100F4000B3FE95ED041B53EC112B02F0BDF953ECED
:100F50001C2B02F0B9F9C5E90E019FEDD30B53EC40
:100F6000102B95ED0E0B51EC100B02F09DFE41EC99
:100F7000100B53EC1A2B85ED180B02F087FD0BD2EA
:100F800095ED180B53EC1B2B51EC100B02F044FCAD
:100F900002D285ED188B38E0B0EE4A0AF0EE6A0A0C
:100FA00053EC102B95ED180B51EC100B02F034FCA8
:100FB0000ED295ED180B53EC192B51EC100B00E0F1
:100FC0002CE002F065FC41EC100B9FEDB91B14E026
:100FD00095ED180B53EC1B2B51EC100B02F056FD4A
:100FE00013D295ED180B53EC192B51EC100B02F0AA
:100FF0004FFC41EC100B9FEDB01B51EC100B53EC70
:10100000112B02F01DFAC5E918016F702068016A02
:1010100021F00A0101622068016A0162207F022832
:101020007ED1A87810B1012813D081E10421204697
:1010300000F059FE02F0DCFBC5E90601AE70206845
:10104000016A21F0A00101622068016A41F02001DB
:1010500090E00421204600F046FE02F0C9FB41EC7E
:10106000100B85ED080B95ED061B53EC112B02F0D0
:101070000DFD95ED060B53EC102B95ED080B51EC87
:10108000100B02D202F010FE14E002F0C5FB13D2E6
:1010900095ED060B51EC1D0B53EC102B02F004FEEA
:1010A00095ED081B53EC112B02F00EF953EC1C2BA1
:1010B00002F00AF9C5E910019FED810B53EC102BEA
:1010C00095ED100B51EC100B02F0EEFD41EC100B06
:1010D00053EC1A2B85ED1A0B02F0D8FC0BD295EDD0
:1010E0001A0B53EC1B2B51EC100B02F095FB02D2A8
:1010F00085ED1A8B36E095ED1A0B53EC1A2B51EC5B
:10110000100B02F089FB0FD2A88802F071FB95ED5D
:101110001A1B53EC112B02F0BBFB41EC100B00E04F
:1011200029E09FED691B15E095ED1A0B53EC1B2B85
:1011300051EC100B02F0AAFC14D2A88802F058FB64
:1011400095ED1A1B53EC112B02F0A2FB41EC100B96
:101150009FED5F1B51EC100B53EC112B02F070F95B
:10116000C5E91A01AF702068016A21F0A00101628F
:101170002068016A0162207F042805D1E87820B147
:101180009FED55AB012813D0D2E00821204600F096
:10119000AAFD02F02DFBC5E90A01EE702068016A84
:1011A00021F4206101622068016A41F40071BEE00F
:1011B0000821204600F097FD02F01AFB41EC100BCD
:1011C00085ED0C0B95ED0A1B53EC112B02F05EFC28
:1011D00095ED0A0B53EC102B95ED0C0B51EC100B0D
:1011E00002D202F061FD14E002F016FB13D295ED7D
:1011F0000A0B51EC1D0B53EC102B02F055FD95ED35
:101200000C1B53EC112B02F05FF853EC1C2B02F07B
:101210005BF8C5E912019FED320B53EC102B95EDF5
:10122000120B51EC100B02F03FFD41EC100B01F0E2
:101230008FF853EC1A2B51EC100B02F0EDFA01D29F
:101240002E706CE09FED280B53EC102B95ED120BDC
:1012500051EC100B02F028FD41EC100B01F078F876
:1012600053EC1A2B51EC100B02F0D6FA40D20220AC
:1012700054E00000000000000088C34000000000AF
:10128000E0FFEF40000000000000F03F0000000021
:1012900000002EC00000000000002E4000000000F2
:1012A000000000000000002000000000006C9640DC
:1012B0000000000000507E40000000000018804048
:1012C00000000000007099400000000000707F40A6
:1012D0000000000000D07E4000000000000014402C
:1012E0000000000000408F400000000000709740A8
:1012F0009FEDC60B53EC102B95ED120B51EC100B20
:1013000002F0D2FC41EC100B01F022F853EC1A2B46
:1013100051EC100B02F080FA01D203202870EF701C
:101320002068016A21F4206101622068016A01627B
:101330002878B84EB84C012860D002287ED0032807
:101340007DD195ED1A0BB0EE40BAF0EE60BA00F028
:10135000FFFF9FEDB28B51EC100B53EC182B02F0FA
:1013600097FA9FEDB01B53EC112B02F0C5FB41EC3B
:101370001A0B53EC182B85ED1CAB51EC1B0B02F038
:1013800087FA8A464AEC180B80469FEDA80B51EC71
:101390001A0B53EC102B01F097FF894649EC100B08
:1013A00095ED18AB074653EC1A2B51EC100B02F0DD
:1013B0006FFA53EC192B02F043F853EC182B02F0A0
:1013C00073FC41EC180B49EC107B85ED148B4AEC57
:1013D0001B8B53EC1A2B51EC100B02F059FA53EC07
:1013E000192B02F02DF853EC1B2B01F06DFFB0EE22
:1013F000480AF0EE680AC5E91601DEE0A88802F0A6
:10140000F7F941EC110B9FED8B9BB0EE490AF0EE22
:10141000690A00F0A9FFB0EE408AF0EE608A95ED0F
:101420001A0B51EC100B01F042FF41EC110BB0EE26
:10143000490AF0EE690A00F097FF01E030E0E0E0D1
:1014400095ED181B51EC100B53EC112B02F020FA08
:1014500053EC182B01F0F4FFC5E91401A88802F041
:10146000C7F941EC110BB0EE490AF0EE690A00F041
:101470007BFFB0EE408AF0EE608A95ED1A1BB0EE6D
:10148000490AF0EE690A00F06FFF95ED181B51EC68
:10149000100B53EC112B02F0FBF953EC182B86E0E8
:1014A000A88802F0A5F995ED1A0B41EC1A0B53EC44
:1014B000192B51EC100B02F0EBF953EC1A2B01F045
:1014C000BFFFC5E91A0195ED180B53EC182B51EC31
:1014D000100B02F00DF90DD195ED1A0B53EC182BF2
:1014E00051EC100B02F004F904D185ED148B85ED5D
:1014F000168B60E095ED1A0BB0EE40CAF0EE60CAB4
:1015000000F026FFB0EE408AF0EE608A95ED180BF1
:10151000B0EE40BAF0EE60BA00F01AFFB0EE481A32
:10152000F0EE681AB0EE40AAF0EE60AA53EC112B70
:1015300051EC100B01F0C8FE814641EC190BB0EEE6
:10154000480AF0EE680A009153EC1C2B51EC100B8A
:1015500002F09EF98B4680464BEC180BB0EE4A0A1F
:10156000F0EE6A0A53EC1B2B51EC100B02F090F9D1
:101570008A464AEC100B074653EC182B51EC100B23
:1015800002F092FB53EC192B01F05AFFC5E914014C
:1015900000994BEC118B4AEC107B41EC189B53ECFF
:1015A000112B51EC100B01F08FFE53EC182B01F0B6
:1015B00047FFC5E9160195ED140B01F0EFFDC2B22E
:1015C00004213046FFF734F895ED140B00F0C0FE0F
:1015D00051EC100B02F0C8F82168486395ED160B2A
:1015E00001F0BAFDC2B208213046FFF721F895EDAF
:1015F000160B00F0ADFE51EC100B02F0B5F82168AF
:10160000886301B0BDEC0C8BBDE8F08F00000000DA
:1016100000409F40000002408800002000000000C1
:1016200000008940000000000040AF4000000000C2
:101630000070B7409A9999999999F13F2DE9F04135
:10164000054690F83C0000260C46012810D00120E9
:1016500085F83C0072B1042A1CD0082A2CD00C2A30
:1016600050D00126002085F83C003046BDE8F081CE
:101670000220FBE7D4E90012E368286800F0D2FDFD
:101680002868816921F00C01816128688169A2685C
:1016900011430FE0D4E90012E368286800F014FE5B
:1016A0002868816921F44061816128688169A268A4
:1016B00041EA02218161D5E72868D4E9002C277B23
:1016C000016A21F480710162C169036A21F003019A
:1016D00041EA0C0121F0F00C39074FF420674CEA85
:1016E000116123F4206307EA02221A43C1610262F6
:1016F0002868C16921F00C01C1612868C169A2682C
:10170000114328E02868D4E90027E168036A23F43C
:1017100080530362D0F81CC0036A2CF4407C4CEA6E
:1017200007274FF6FF7C27F470470CEA0131394355
:101730004FF4204723F4204307EA02321A43C161E1
:1017400002622868C16921F44061C1612868C169E9
:10175000A26841EA0221C16184E710B5040003D008
:1017600094F83D0010B107E0012010BD002084F87E
:101770003C00204600F01EF8022084F83D00211DA8
:10178000206800F0F7FB012084F8460084F83E0052
:1017900084F83F0084F8400084F8410084F8420057
:1017A00084F8430084F8440084F8450084F83D0040
:1017B000002010BD10B586B0044614216846FEF71F
:1017C000CAFD17492068884227D1164800210268BF
:1017D00042F004020260006800F004000590114825
:1017E0001038026842F008020260006800F0080049
:1017F00005904FF4E04000900220CDE90101CDE9D1
:10180000031069460848FEF71BFE002211461E2001
:10181000FEF782FF1E20FEF771FF06B010BD00002C
:101820000008004040380240000C024030B5044639
:10183000002551B104290DD0082910D094F8410099
:1018400094F84520012811D10EE094F83E0094F858
:101850004220F7E794F83F0094F84320F2E794F829
:10186000400094F84420EDE7012A01D0012030BD6A
:10187000022059B1042912D0082919D084F8410056
:1018800084F845000C2944D0012540E084F83E004E
:1018900084F842002068C26842F0020210E084F836
:1018A0003F0084F843002068C26842F0040207E069
:1018B00084F8400084F844002068C26842F00802BE
:1018C000C2600122206800F0B9FB144920688842F8
:1018D00014D0B0F1804F11D0114988420ED0114977
:1018E00088420BD01049884208D01049884205D060
:1018F0000F49884202D00F49884204D1816801F023
:101900000701062903D0016841F001010160284662
:1019100030BD2068C26842F01002D1E700000140EB
:101920000004004000080040000C0040000401409A
:10193000004001400018004070B50446006801698D
:101940004FF00005C943890715D4C168C943890709
:1019500011D4E91E01610120207720688069800789
:10196000204602D0FFF796FA04E000F0C1F82046C6
:1019700000F053F9257720680169C943490717D456
:10198000C168C943490713D46FF004010161022003
:1019900020772068806910F4407F204602D0FFF74E
:1019A00079FA04E000F0A4F8204600F036F9257733
:1019B00020680169C943090716D4C168C9430907EA
:1019C00012D46FF008010161042020772068C069FB
:1019D0008007204602D0FFF75DFA04E000F088F8A7
:1019E000204600F01AF9257720680169C943C90625
:1019F00017D4C168C943C90613D46FF0100101613F
:101A0000082020772068C06910F4407F204602D06B
:101A1000FFF740FA04E000F06BF8204600F0FDF814
:101A2000257720680169C943C90708D1C168C9433E
:101A3000C90704D1891E0161204600F053F92068CE
:101A40000169C943090609D4C168C943090605D417
:101A50006FF0800101612046FFF724F920680169D9
:101A6000C943490609D4C168C943490605D46FF082
:101A700040010161204600F04BF920680169C9432B
:101A800089060BD4C168C943890607D46FF02001C9
:101A900001612046BDE87040FFF705B970BD000048
:101AA00010B586B0044614216846FEF754FC206841
:101AB000B0F1804F15D10C480021026842F00102BC
:101AC0000260006800F001000590032000900220F1
:101AD000CDE901010120CDE9031069460348FEF775
:101AE000AFFC06B010BD00003038024000000240DC
:101AF000704770B5044690F83C0000260D4601285A
:101B00000FD0012084F83C006AB1042A1DD0082AB5
:101B10002FD00C2A3FD00126002084F83C0030460C
:101B200070BD022070BD206800F0A8FA20688169AD
:101B300041F0080181612068816921F0040181611F
:101B4000206881692A69114311E0206800F0C6FA13
:101B50002068816941F4006181612068816921F414
:101B600080618161206881692A6941EA022181617D
:101B7000D2E7206800F0E8FA2068C16941F0080166
:101B8000C1612068C16921F00401C1612068C16997
:101B90002A69114311E0206800F00AFB2068C1693E
:101BA00041F40061C1612068C16921F48061C161B3
:101BB0002068C1692A6941EA0221C161ACE710B518
:101BC000040003D094F83D0010B107E0012010BDDF
:101BD000002084F83C00204600F01EF8022084F823
:101BE0003D00211D206800F0C5F9012084F8460061
:101BF00084F83E0084F83F0084F8400084F84100F7
:101C000084F8420084F8430084F8440084F84500D6
:101C100084F83D00002010BD7047704710B50446A1
:101C2000022249B104290ED0082913D094F84100AA
:101C3000012816D0012010BD94F83E000128F9D1EA
:101C400084F83E200FE094F83F000128F2D184F898
:101C50003F2008E094F840000128EBD184F84020B0
:101C600001E084F841200122206800F0E7F91649DC
:101C70002068164A884201D0904203D1436C43F455
:101C8000004343642068884213D0B0F1804F10D0E5
:101C90000F4988420DD00F4988420AD00E49884228
:101CA00007D0904205D00D49884202D00C498842A5
:101CB00004D1816801F00701062903D0016841F0D1
:101CC00001010160002010BD00000140000401403E
:101CD0000004004000080040000C004000400140AB
:101CE0000018004070470246002041B1042909D085
:101CF00008290AD00C2901D11068006C70471068BF
:101D0000406B70471068806B70471068C06B7047FD
:101D10007047FEE730B587B014216846FEF71BFB1D
:101D200015480024016841F080010160016801F05C
:101D300080010591016841F001010160016801F035
:101D400001010591016841F00801016000680B4D37
:101D500000F00800059000220C212846FEF768FCE0
:101D60000C2000900120CDE9010469462846039427
:101D7000FEF766FB07B030BD30380240000002407D
:101D800010B58EB000240794089409940A940B941B
:101D90001C2168460C94FEF7DEFA22484FF0804181
:101DA000016040F24731C0E9011442F20F71C0E90D
:101DB00003148461FEF7C0FF08B172B6FEE74FF46A
:101DC0008050079007A91748FEF7F6FF08B172B6D2
:101DD000FEE71448FFF7F3FE08B172B6FEE70B9476
:101DE0000BA910480C94FEF75FFF08B172B6FEE72E
:101DF0006020CDE900040294002269460948049459
:101E0000FFF777FE08B172B6FEE70422694605487F
:101E1000FFF76FFE08B172B6FEE70248FFF740FE1B
:101E20000EB010BD8800002010B586B000242048F8
:101E3000059404940094019402941C490394016055
:101E40005321C0E901144FF6FF71C0E90314846106
:101E5000FFF783FC08B172B6FEE7049404A91448A6
:101E60000594FEF721FF08B172B6FEE70120CDE927
:101E700000400294002269460D480394FFF7DEFB00
:101E800008B172B6FEE7042269460948FFF7D6FB9F
:101E900008B172B6FEE7082269460548FFF7CEFB97
:101EA000002801D072B6FEE706B010BD0008004061
:101EB000D0000020FEE7FEE770477047FEF7C4BB86
:101EC00030B593B030216846FEF745FA14210CA8CE
:101ED000FEF741FA1E480025016841F0805101607B
:101EE000006800F0805011901A48016841F4804168
:101EF00001600068022400F48040119001200090ED
:101F0000000401908001CDE90640082008904FF4BC
:101F1000A870CDE9090404200B906846FEF7F8FC90
:101F200008B172B6FEE70CA90F2081E831004FF42A
:101F3000A0500F904FF48050109005210CA8FEF790
:101F40001DFC002801D072B6FEE713B030BD0000C2
:101F500040380240007000400248016841F47001BE
:101F60000160704788ED00E00148FFF7E5BC000024
:101F7000D0000020F0B50268254C264D264E274F94
:101F8000274B4FF0804CA04209D0604507D0A842B3
:101F900005D0B04203D0B84201D0984204D122F01B
:101FA000700E4A6842EA0E02A0421BD0604519D06A
:101FB000A84217D0B04215D0B84213D0984211D0E1
:101FC000184DA8420ED0184DA8420BD0174DA8426C
:101FD00008D0174DA84205D0164DA84202D0164D84
:101FE000A84203D122F44075CA682A434D6922F001
:101FF00080022A4302608A68C2620A688262A04242
:1020000001D0984201D10969016301214161F0BD0C
:10201000000001400004004000080040000C0040A7
:1020200000040140004001400044014000480140DC
:1020300000180040001C00400020004010B501F0D6
:102040001F030121046A99408C430462016A9A408B
:102050001143016210BD10B5846842EA032224F4E2
:102060007F440A432243826010BD826822F07002DE
:102070000A4342F00701816070470000F0B5026A30
:1020800022F001020262036A42688469124E24F05F
:1020900073050C682C4323F002058B682B430D4D10
:1020A000A84201D0B04205D123F00807CB683B43DA
:1020B00023F00403A84201D0B04205D14D6922F4B7
:1020C000407215438A692A434260846149684163CA
:1020D0000362F0BD0000014000040140F0B5026A57
:1020E00022F010020262026A436884690D6824F4D7
:1020F000E64444EA05248D6822F0200242EA0512F3
:102100000F4D104EA84201D0B04206D1CF6822F048
:10211000800242EA071222F04002A84201D0B042F7
:1021200007D14D6923F4406343EA85038D6943EA8F
:10213000850343608461496881630262F0BD0000E9
:102140000000014000040140F0B5026A22F48072F0
:102150000262026A4368C46922F4007224F07305C3
:102160000C68124E2C438D6842EA05220E4DA8429F
:1021700001D0B04206D1CF6822F4006242EA0722C1
:1021800022F48062A84201D0B04207D14D6923F405
:10219000405343EA05138D6943EA05134360C46164
:1021A0004968C1630262F0BD0000014000040140C3
:1021B00030B5026A22F480520262046A4268C3693E
:1021C0000D6823F4E64343EA05238D6824F40054A4
:1021D00044EA0534084DA84202D0084DA84204D173
:1021E0004D6922F4804242EA85124260C361496827
:1021F0000164046230BD00000000014000040140A1
:1022000010B5036A046A24F001040462846924F0AE
:10221000F00444EA021423F00A020A4384610262D1
:1022200010BD000070B5046A24F0010404628469E2
:10223000056A154EB04214D0B0F1804F11D0134E44
:10224000B0420ED0124EB0420BD0124EB04208D067
:10225000114EB04205D0114EB04202D0104EB042E5
:1022600003D124F00304144301E044F001041A07ED
:1022700024F0F00444EA126225F00A0301F00A0196
:1022800019438261016270BD0000014000040040FA
:1022900000080040000C00400004014000400140E4
:1022A0000018004010B5036A23F01003036283692D
:1022B000046A23F4704343EA023224F0A00343EAA1
:1022C00001118261016210BD30B5046A24F010046E
:1022D00004628469056A24F4407444EA022222F408
:1022E00070444FF6FF7202EA03322243A02425F025
:1022F000A00304EA011119438261016230BDFEE7C7
:1023000003B401984100009850EAC12018BF04208E
:102310004A0D18BF40F0010040F2FF72B2EB515F6E
:1023200008BF40F00200012808BF052002B0704736
:102330000907090E002804DB00F1E02080F80014F2
:10234000704700F00F0000F1E02080F8141D704786
:102350002DED020B019820F0004001909DED000B47
:1023600002B07047000000002DE9F04D2DED040B88
:102370002DED0E8B96B0DDE92550279CDDF890A061
:1023800025F0004624F00048BAF1000F14BF0121E7
:10239000002101EB4502FC4953184A1093422AD30D
:1023A000002814BF0123002303EB44030B44F74927
:1023B0008B4220D358EA00019FEDF59B76D0DFF8E1
:1023C000D8B35D4503D1BAF1000F05D188E0BAF169
:1023D000000F08BF002100D0012101EB450111F5DC
:1023E000001F08D8002814BF0121002101EB44017F
:1023F00011F5001F0BD99DED261B9DED240B16B08A
:10240000BDEC0E8B04B0BDE8F04D00F069BE0027B6
:10241000002DBCBFE149884521DAE1498845A8BFC4
:1024200002271CDAC3451ADCDE4901EB28511429C6
:1024300008DDC1F1340220FA02F101FA02F282420F
:102440000DD108E058B9C1F1140228FA02F101FADD
:1024500002F2424503D101F00101C1F1020756EA3F
:102460000A0124D1002C22DA002D18BF022F01D03E
:10247000012F0AD00220FDF79DFF16B0BDEC0E8B98
:1024800004B0BDE8F04D00F013BE0220FDF792FF4E
:1024900000F00EFE51EC100B00F009FF41EC100BA8
:1024A00016B0BDEC0E8B04B0BDE8F08D18E09FEDCA
:1024B000BEAB9FEDBF8B002871D1B848804522D1BB
:1024C00005F1804010F5801008BFBAF1000F07D069
:1024D000B3450ADC002CA8BF9DED260BE0DA0DE029
:1024E000B0EE490AF0EE690ADAE7002C06DA9DED53
:1024F000260B51EC100B00F0DAFE6FE0AE4878448A
:1025000090ED000BCCE7D8454DD1002C48DA2EB128
:1025100086423AD1BAF1000F42D126E0BAF1000F5B
:1025200013D00220FDF746FF00F0F6FD8DED020B03
:102530009DED240B8DED000B10EE900A039961F3D5
:102540001E0003909DED020BAAE78DED02AB9DED01
:10255000240B1AEE901A10EE900A8DED000B61F329
:102560001E0003909DED020B9AE78DED028B9DED11
:10257000240B18EE901A10EE900A8DED000B61F30B
:102580001E0003909DED020B8AE709DA9DED240BF6
:1025900051EC190B53EC102B00F052FF1EE020E021
:1025A0009DED240B7CE786421BDAB4F1804F0DD001
:1025B000A4F10050B0F1FF5013D1002D11DB9DEDBF
:1025C000240B51EC100B00F03BFE07E09DED240BBB
:1025D00053EC102B51EC100B00F0C2BC41EC100B73
:1025E0005EE79DED240B51EC100B00F0F9FDBAF104
:1025F000000FCDE90E0142D19FED710B46B3A6F15C
:10260000E040B0F17F600CD05E4538D1002D00DA9B
:10261000A7B3022F0CBF01204FF0FF3001F0D1F81B
:10262000DCE7002D01DD002C0DDA002D01DD002C92
:102630001FDB002D16DA002C14DB012F08BF9FEDE5
:10264000620B3FF42DAFB0EE4A0AF0EE6A0A27E7BC
:10265000022F18BF002D0CD0012F0AD1002DFFF63C
:102660001FAF06E0002DB8BF002C08DA012F3FF4A1
:1026700017AFB0EE480AF0EE680A11E71BE0012040
:1026800000EBE57050EA070115D0791EB0EE498ADB
:10269000F0EE698A084308BF9FED4D8B4E48002538
:1026A000804570DD4D494E48884514DDB0420DDB54
:1026B000002C19DB2FE00120FDF77CFE16B0BDECED
:1026C0000E8B04B0BDE8F04D00F016BDB34502DC42
:1026D000002C09DC1FE0864202DA002C1BDA03E042
:1026E0005E452BDD002C16DD0220FDF763FE00F0B9
:1026F00013FD8DED020B53EC1A2B51EC180B01F06E
:10270000C7F8CDE900010399019861F31E00039019
:102710009DED020BC4E60220FDF74CFE00F00CFD1F
:1027200010EE901A18EE900A8DED020B8DED008BD5
:1027300061F31E0003909DED020BB1E69DED0E0BC3
:1027400053EC192B51EC100B01F0AEFA9FED260B58
:10275000CDE9080153EC102B9DED080B51EC100B4B
:1027600001F096F89FED221B53EC112B01F0C4F9F8
:102770009DED081B53EC112B01F08AF89FED1E1BF9
:1027800053EC112B3CE08CE0FFFF1F00FFFF0F001C
:10279000000000000000F03F0000F03F0000F07F6C
:1027A0000000404301FCFFFF000000000000F07F3C
:1027B00000000000000000000E1B000000000000F0
:1027C0000000000000000080000000000000F0FF9A
:1027D000000000000000F0BF0000E0410000F043F6
:1027E000FFFFEF3F00000000000000000000D03FAE
:1027F000555555555555D53F000000000000E03FA8
:1028000001F07AF99DED080B41EC1A0B53EC102BFB
:1028100051EC100B01F03CF853EC1A2B01F038F896
:1028200041EC1A0B9FEDFE0B53EC102B9DED080BAA
:1028300051EC100B01F02CF841EC1B0B9FEDFA0B47
:1028400051EC1A0B53EC102B01F022F841EC1A0B4F
:102850009FEDF70B53EC102B9DED080B51EC100B7B
:1028600001F016F853EC1A2B01F01EFA41EC1A0B8A
:1028700051EC1B0B53EC1A2B00F026FD0690CDE912
:1028800006519DED060B53EC1B2B51EC100B01F088
:102890000BFA53EC1A2B01F02FF941EC100B00F05E
:1028A000A1B90020B6F5801F0EDA9FEDE30B53ECC3
:1028B000102B9DED0E0B51EC100B00F0E9FFCDE954
:1028C0000E016FF034000E4600EB2650A0F2FF37E9
:1028D000C6F31300DA4940F07F6646F0405688425E
:1028E000D8BF002408DDD7498142C8BF012403DCDA
:1028F0000024A6F580167F1CD348784400EBC40062
:102900000F9690ED00CB9DED0E0B53EC1C2B51EC74
:10291000100B01F0C9F99DED0E0B41EC1B0B53ECB4
:102920001C2B51EC100B00F0CFFC41EC100B51ECC8
:10293000190B53EC102B00F083FD41EC1D0B51ECF7
:102940001B0B53EC1D2B00F0A3FF41EC1A0BBF48EF
:102950008DED10AB7844109590ED000B4FF00050CA
:1029600040EA660000EB84408DED080B00F5002086
:1029700009909DED080B53EC1C2B51EC100B01F052
:1029800093F99DED0E1B53EC112B01F0B5F841ECC2
:10299000100B53EC102B9DED100B51EC100B00F0B5
:1029A00077FF9DED080B41EC1C0B53EC102B9DEDBC
:1029B000100B51EC100B00F06BFF53EC1B2B01F0D4
:1029C0009BF853EC1C2B01F06FF953EC1D2B00F01E
:1029D0005FFF41EC1C0B53EC1A2B51EC1A0B00F06F
:1029E00057FF41EC1B0B9A480621B0EE4B0AF0EE64
:1029F0006B0A784400F0E0FAB0EE401AF0EE601A8C
:102A0000B0EE41DAF0EE61DA53EC1B2B51EC1B0B0C
:102A100000F03EFF53EC1D2B00F03AFF9DED100B34
:102A200041EC1B0B53EC1A2B51EC100B00F04CFC3F
:102A300053EC1C2B00F02CFF53EC1B2B00F044FC40
:102A40009DED100B41EC1B0B53EC102B51EC100BBC
:102A500000F01EFF41EC1D0B9FED7FEB53EC1E2B96
:102A600000F032FC53EC1B2B00F02EFC0890CDE95B
:102A700008519DED080B53EC1E2B51EC100B01F08F
:102A800013F953EC1D2B01F00FF953EC1B2B01F044
:102A900033F89DED080B41EC1D0B53EC102B9DED15
:102AA000100B51EC100B00F0F3FE41EC1B0B53EC40
:102AB0001A2B51EC1D0B00F0EBFE9DED080B41ECC9
:102AC0001A0B53EC102B51EC1C0B00F0E1FE53ECF5
:102AD0001A2B00F0F9FB41EC1A0B51EC1B0B53ECD9
:102AE0001A2B00F0F1FB0C90CDE90C519DED0C0B75
:102AF00053EC1B2B51EC100B01F0D6F853EC1A2BB6
:102B000000F0FAFF41EC1B0B9FED550B53EC102B23
:102B10009DED0C0B51EC100B00F0BAFE41EC1A0BC2
:102B20009FED510B51EC1B0B53EC102B00F0B0FE42
:102B300041EC1B0B9FED4E0B53EC102B9DED0C0B42
:102B400051EC100B00F0A4FE53EC1B2B00F0BCFB6F
:102B500041EC100B4848784400EBC40090ED001B9A
:102B600051EC100B53EC112B00F0AEFB41EC1B0BA6
:102B7000384600F026FECDE9080153EC1B2B51EC42
:102B80001A0B00F0A1FB41EC100B3C48784400EB21
:102B9000C40090ED00CB51EC100B53EC1C2B00F05B
:102BA00093FB9DED081B53EC112B00F08DFB069061
:102BB000CDE906519DED080B53EC102B9DED060B56
:102BC00051EC100B01F070F853EC1C2B01F06CF879
:102BD00053EC1A2B01F068F853EC1B2B00F08CFF20
:102BE00041EC100B9DED261B53EC102B8DED001BC3
:102BF00000959DED260B51EC100B00F049FE9DED6C
:102C0000000B41EC1A0B53EC102B9DED260B51ECF5
:102C1000100B01F049F89DED061B53EC112B2FE032
:102C2000000000604715F73FFE822B654715F73F10
:102C300044DF5DF80BAE543E00000000000040434E
:102C40008E9803007AB60B008A160000B8160000B2
:102C5000C215000000000000000000000000084055
:102C6000000000E009C7EE3FFD033ADC09C7EE3F74
:102C7000F5015B14E02F3EBE4E1400000814000066
:102C800000F006FE53EC1A2B00F01EFB9DED060B28
:102C900041EC1A0B53EC102B9DED000B51EC100B7B
:102CA00000F0F6FDCDE90C019DED0C0B51EC1A0B7B
:102CB00053EC102B00F008FBCDE902010C46AA49A9
:102CC0008C422FDB611A084318D19DED0C0B53EC9D
:102CD000102B9DED020B51EC100B00F0E5FF41ECC9
:102CE0001B0B9FEDA30B51EC1A0B53EC102B00F0B8
:102CF000EBFA53EC1B2B00F0C9FE2DD20220FDF79E
:102D000059FB00F009FA10EE901A18EE900A8DEDBA
:102D1000020B8DED008B61F31E0003909DED020B05
:102D2000FFF7BEBB944A24F00041914214D393496B
:102D3000214408437FF4EFAC9DED0C0B53EC102BBA
:102D40009DED020B51EC100B00F0AEFF53EC1A2B73
:102D500000F09CFE7FF6DFAC24F000408849894AF1
:102D6000002601EB205182422BDA481C4FF48011DF
:102D700021FA00F02044844AC0F30A517A44A1F2B7
:102D8000FF3192ED000B814A8DED080BCA4020EA1D
:102D90000202C0F3130040F48010C1F1140120FAC4
:102DA00001F60992002CB8BF76429DED080B53EC5A
:102DB000102B9DED0C0B51EC100B00F075FFCDE9C5
:102DC0000C019DED0C0B51EC1A0B53EC102B00F089
:102DD0007BFA9FED6F0B0890CDE9085153EC102B57
:102DE0009DED080B51EC100B00F052FD41EC1B0B5C
:102DF0009FED690B53EC102B9DED080B51EC100B64
:102E000000F046FD9DED0C0B41EC1C0B53EC102B20
:102E10009DED080B51EC100B00F046FF53EC1A2B04
:102E200000F06AFE9FED5E1B53EC112B00F030FDAD
:102E300053EC1C2B00F048FA41EC1A0B51EC1B0B25
:102E400053EC1A2B00F040FACDE902019DED020B84
:102E500053EC1B2B51EC100B00F026FF53EC1A2BFC
:102E600000F04AFE9DED020B41EC1A0B53EC102BC7
:102E700051EC100B00F00CFDCDE908014A489DED26
:102E8000080B0521784400F097F89DED081B51ECE4
:102E9000100B53EC112B00F0FBFC9DED021B53ECCF
:102EA000112B00F029FECDE906019DED020B53EC3C
:102EB0001A2B51EC100B00F0EBFC53EC1A2B00F02A
:102EC00003FA9FED3B0B41EC1A0B53EC102B9DEDDD
:102ED000060B51EC100B00F0E7FE9DED060B41ECEC
:102EE0001B0B53EC102B9DED020B51EC100B00F063
:102EF000CFFC53EC1B2B00F0A3FA53EC1A2B00F081
:102F0000D3FE9DED021B53EC112B00F0CDFE53ECD4
:102F1000192B00F0F1FDCDE9020101EB065001157E
:102F20000029C8BF039015DC9DED020B324651EC21
:102F3000100B00F0DAFFFFF7E3F9042808BF00F0F8
:102F4000FBF832469DED020B51EC100B00F0CDFF6B
:102F5000CDE902019DED020B51EC180B53EC102B47
:102F600000F096FCFFF73ABB000090400000000024
:102F7000FE822B654715973C00CC904000346F3F94
:102F800001FCFFFF0000E03F90120000FFFF0F0078
:102F900000000000432EE63F396CA80C615C20BEA7
:102FA000EF39FAFE422EE63F6011000000000000FB
:102FB000000000000000004070B504462DED028BBB
:102FC0004D1E00EBC500B0EE408AF0EE608A90ED39
:102FD000000B35F0060017D053EC182B51EC100BFA
:102FE00000F056FC41EC100B6D1E04EBC50090ED9B
:102FF000001B51EC100B53EC112B00F065F941EC68
:10300000100B35F00600E7D1022D36D0042D1CD070
:10301000062D1CBFBDEC028B70BD53EC182B51EC80
:10302000100B00F035FC94ED0A1B53EC112B00F053
:103030004BF953EC182B00F02BFC94ED081B53ECD0
:10304000112B00F041F941EC100B53EC182B51EC13
:10305000100B00F01DFC94ED061B53EC112B00F03F
:1030600033F953EC182B00F013FC94ED040B53ECE4
:10307000102B00F029F941EC100B53EC182B51ECFC
:10308000100B00F005FC94ED021B53EC112B00F02B
:103090001BF953EC182B00F0FBFB94ED001B53ECD9
:1030A000112B00F011F9BDEC028B41EC100B70BD3F
:1030B0009FED070B10B553EC102B9FED070B51EC58
:1030C000100B00F0BDF941EC100B10BD000000002A
:1030D0000000000000000000000000000000F03FC1
:1030E00010B553EC112B51EC100B00F0EDF841EC46
:1030F000100B10BD000000009FED050B10B553EC48
:10310000102B51EC100B00F09BF941EC100B10BD93
:1031100000000000000000009FED050B10B553EC0F
:10312000102B51EC100B00F0B3FB41EC100B10BD59
:1031300000000000000000709FED050B10B553EC7F
:10314000102B51EC100B00F0A3FB41EC100B10BD49
:10315000000000000000001010B52DED048BB0EE53
:10316000408AF0EE608A9FED0B9B51EC180B53ECFC
:10317000192B00F08BFC01D8002407E053EC192B2D
:1031800051EC180B00F048FB00D20124BDEC048B7D
:10319000204610BD000000000000000010B52DED1D
:1031A000048BB0EE408AF0EE608A9FED0B9B51ECF1
:1031B000180B53EC192B00F069FC01D8012407E02F
:1031C00053EC192B51EC180B00F026FB00D2002415
:1031D000BDEC048B204610BD000000000000000084
:1031E00082B0CDE9000121F0004001909DED000B7F
:1031F00002B051EC100B7047FDF72EFAFEF760FE9F
:10320000FEF788FDFEF7BCFDFEF70EFE00210B4821
:10321000FEF70CFB04210948FEF708FB08210748CC
:10322000FEF704FB054800214838FEF7F7FC034889
:1032300004214838FEF7F2FCFEE70000D000002031
:1032400000B52DED048B83B041EC190B00F060FC50
:1032500041EC180B18EE100A18EE901A8DED008B49
:10326000002818BF0120084320F00040C0F17F6013
:1032700000F1E040C00F14D019EE101A19EE900AB8
:103280008DED009B002918BF0121084320F000406C
:10329000C0F17F6000F1E040C00F04BF0120FDF7E6
:1032A00089F851EC180B03B0BDEC048B00BD81F024
:1032B0000041704780F00040704721F000417047A6
:1032C00020F000407047000010B591EA030F48BF9E
:1032D00083F0004300F1F084841A71EB030C05D2F3
:1032E000121943EB0C03001B61EB0C01DFF824E126
:1032F0004FEA1154A4EB135C1EEA430F18BF9EEA79
:10330000445F73D023EA0E03DCF1200E21EA04515E
:1033100043F4801332D322FA0CFE10EB0E0023FA92
:103320000CFE41EB0E01CCF1200E03FA0EFE10EB69
:103330000E0051F10001B1F5801FCCF1200E32D208
:1033400001EB045112FA0EF2BDE8104058BF70476D
:10335000401C38BF5FEA420218BF7047002814BF04
:1033600020F0010041F100014FEA410313F5001F75
:1033700038BF7047A1F1C04100F082BB012A43EB86
:103380000302ACF1200CDCF11F0E32BF4FF0000E37
:1033900023FA0CF310EB030041EB0451B4EB115F83
:1033A000D0D0A1EB045101F5801149085FEA30004B
:1033B00001EB04510ED350F1000038BF12FA0EFE9B
:1033C00008D1BDE81040C9E7401C38BF5FEA42029F
:1033D000CAD1C3E7BDE810404FEA410313F5001F0F
:1033E00038BF7047A1F1C04100F04ABB9EEA445F7C
:1033F00008D011EA5E0FBDE8104004BF01F00041A3
:1034000000207047BDE8104070B500F0EBFA00BF37
:1034100064FBBE3E0000E0FF02494FF0000000F0F8
:1034200032BD00BF0000F87F491058BFC1F14041D4
:103430005B1058BFC3F140438B42EFF300807047ED
:103440002DE9C04130B4DFF8A0C23CEA111418BF26
:103450003CEA131400F0EC8081EA03051CEA111425
:1034600044EAD57418BF1CEA131500F0C780A4EB1A
:1034700005044FF0004545EAC12145EAC32341EA6E
:10348000505143EA525304F17F74994204F50034D9
:103490004FEAC0204FEAC22208BF904200F09C8051
:1034A0004FEA13650FF24016765D4FEA134506FBAF
:1034B00005F7C7F1807706FB07F74FEAD737A7FB79
:1034C00003687642C8F58038A7FB06CE38BFA8F15E
:1034D000010807FB08E64FF0000EA6FB028CE6FB96
:1034E00003CEDCF1000CCEF1004E38BFAEF1010E80
:1034F000A6FB0C584FF000074FF00005E6FB0E87C7
:10350000A1FB08C6A0FB07CE16EB0E0645F1000591
:10351000E1FB076515F1E04E7EBFA4F580345FEA5C
:1035200046066D4116F1800745F100054FEA172761
:103530004FEA066647EA0567A6F1DE46B6F1805F08
:103540004FEA15251FD9384624F0010C05EBC4714C
:10355000BCF1FE6F01EB0C1102D8F0BCBDE800819C
:1035600024425CBF01F5801E9EEAC47F02D4F0BCF9
:10357000BDE80081244238D4F0BCA1F1C041BDE8CF
:10358000004100F07DBA4FEAD22242EA43524FEAAC
:10359000D323A7FB02864FEAD02040EA415007FB25
:1035A00003661EEA0E0F4FEAD12105FB026658BFE3
:1035B000A6EB0056B6EB00564FEA520E4EEAC37E1B
:1035C00018EB0E0E56EB530EBDD518EB02085E41FC
:1035D0007F1C55F10005B6E74FF480154FF000074A
:1035E0004FF000064FF00008ADE7F0BC4FF00000D0
:1035F00001F1C04101F00041BDE8008111EA0C1F5A
:103600000CEA131500D00CE013EA0C1F00F0258023
:103610004FF00000F0BC81EA030101F00041BDE879
:103620000081F0BCBDE8004181EA030100F028BA46
:10363000F0BCBDE8004170B500F0D4F9097EFC3E55
:1036400000F007B881EA03014FF0000001F00041EB
:10365000704781EA030100F013BAF0BCBDE80041F5
:103660004FF0000021497047FFFDFBF9F7F5F4F238
:10367000F0EEEDEBE9E8E6E4E3E1E0DEDDDBDAD80D
:10368000D7D5D4D3D1D0CFCDCCCBCAC8C7C6C5C46B
:10369000C2C1C0BFBEBDBCBBBAB9B8B7B6B5B4B382
:1036A000B2B1B0AFAEADACABAAA9A8A8A7A6A5A46D
:1036B000A3A3A2A1A09F9F9E9D9C9C9B9A99999831
:1036C0009797969595949393929191908F8F8E8ED4
:1036D0008D8C8C8B8B8A8989888887878685858461
:1036E00084838382828181800000FF070000F87F4D
:1036F00051EA030C17D41CF5801F58BFBCF5801F7E
:1037000000F10680994218BF704708BF9042704789
:1037100007D711F5801F58BF13F5801F19D49942A0
:103720007047894270471CF5801F08D5BCF5801F83
:10373000F7D58B4218BF704708BF824270474FF4DD
:10374000001C1CEB410F38BF1CEB430F01D28B4216
:10375000704770B500F046F9922449004FF00051CF
:103760004FF08053FFF760BE4FEA1153A3F580631B
:10377000D3F11E03A8BFD3F1200C08DB4FF00042A9
:1037800042EAC12252EA505232FA03F0704709422B
:103790000BD4102BC4BF0020704703F5787CBCF11C
:1037A000FF3F05D04FF0FF3070474FF000007047EB
:1037B00070B500F017F900BF4992248000207047CF
:1037C000F0E710F0004248BF4042B0FA80F310FA30
:1037D00003F10AD0C3F11D0303F580634FEA4150A2
:1037E00002EB035202EBD12170474FF0000070470B
:1037F000B0FA80F310FA03F10AD0C3F11D0303F508
:1038000080634FEA41504FEA035202EBD1217047E7
:103810004FF000007047000051EA030C17D41CF56C
:10382000801F58BFBCF5801F00F10680994218BF69
:10383000704708BF9042704707D711F5801F58BFE7
:1038400013F5801F19D499427047894270471CF5BF
:10385000801F08D5BCF5801FF7D58B4218BF704775
:1038600008BF824270474FF4001C1CEB410F38BF69
:103870001CEB430F01D28B42704770B500F0B2F8D9
:10388000922449004FF000514FF08053FFF7CCBD18
:10389000DFF848C170B51CEA111E1EBF1CEA1315E3
:1038A0009EEA0C0F95EA0C0F00F06F8081EA03048A
:1038B00023EA4C134EEAD47E21EA4C1141F48011E4
:1038C00043F48013AE44A1FB024CA0FB0365AEF1B0
:1038D0007F7E361955EB0C05A1FB034C4CF1000320
:1038E000A0FB021C16EB0C06654153F100030942D4
:1038F00018BF46F0010613F4007F0BD14FEA0331E5
:103900004FEA0530340341EA155140EA16506FF092
:1039100003020AE04FEAC3214FEAC520F40241EA5C
:10392000555140EA56506FF0020202EB2E4201EB75
:10393000025585EACE710AD05FEA440C18BF24F024
:10394000004450F1000041F1000120EAD47040F23F
:10395000FE7C624500D270BDA84214BF4FF0804487
:103960004FF04044002E08BF0024BEF1806FA8BF76
:10397000A1F1C041BDE8704080F282804FF00000AC
:1039800001F1C04101F0004170479EEA0C0F0CEAC2
:10399000131518BF95EA0C0F06D04FF0000081EA0E
:1039A000030E0EF0004170BD00F01CF88900013ECE
:1039B00000F007B800F009B84FEA430C5FEA5C5C1E
:1039C00008D081EA030100F05BB84FEA410C5FEADE
:1039D0005C5CF6D14FF00000014970470000FF0722
:1039E0000000F87F0EF1020E2EF0030E5EF8046B5D
:1039F000364205D4012A43EB030515F5001F12D802
:103A0000012841EB010C1CF5001F0CD80ED14FEA28
:103A1000D17C15F5001F0CEB4C0C0CF1020C08BF0F
:103A20004CEBD37C04E04FF0080C01E04FEAD37C70
:103A30000CEB4C0526FA05F606F00706B6F1040C69
:103A400006D20EEB860CBDE870404CF0010C6047CE
:103A5000DFE80CF0090B02024FF000414FF00000CC
:103A6000A1F5002170BD19461046012851EB010453
:103A700018BFD4F5001484BF002001F0004170BDD0
:103A80000808A0F500114FEA3101704753EA010C14
:103A900017D41CF5801F58BFBCF5801F00F10680AD
:103AA0008B4218BF704708BF8242704707D713F593
:103AB000801F58BF11F5801F19D48B4270479B425D
:103AC00070471CF5801F08D5BCF5801FF7D59942BB
:103AD00018BF704708BF904270474FF4001C1CEBA2
:103AE000430F38BF1CEB410F01D2994270470FB40E
:103AF0000CBC03BCFFF7C1BE91EA030F10B581F007
:103B000000413FF5E9AB83F0004300F0D5B8000079
:103B10002DE9F04101F5801CBCF5001FC0F2A98021
:103B20004FEA115C21EA0C510CF1FD0C41F48011BB
:103B30005FEA5C0C0CF5C07C01D34000494130A425
:103B4000890241EA905187028E0E0A0CA45D04FBA3
:103B500004F602FB06F6C6F14046A4FB0662F60D2B
:103B600046EA422606FB06F4A4FB01235242C3F1B7
:103B7000404338BF5B1EA6FB02420024E6FB032441
:103B8000D20B42EA4446A6FB0623A1FB02E2A3FBBA
:103B900007E4E3FB61426442C2F1404E38BFAEF13C
:103BA000010EA6FB04234FF00002E6FB0E32A2FB3F
:103BB00003463400E2FB6264A1FB06E6A4FB07E8CF
:103BC000E4FB61687642C8F1405838BFA8F10108AB
:103BD000A2FB06E4A3FB08E5E2FB6854A1FB05E6B3
:103BE000A7FB04E8E1FB648618F1200556F1000606
:103BF000A809A8F11B08B10908F03F08B8F10A0F9D
:103C000040EA86601CD901EB0C51BDE8F08100BF91
:103C1000FCF5EEE8E2DDD8D3CFCBC7C3C0BDB9B663
:103C2000B4B1AEACA9A7A5A3A19F9D9B9A98969568
:103C30009392908F8D8C8B898887868584838281EF
:103C4000A0FB006800FB01F208EB4208B8EB8728F4
:103C500007D5341858EB0104D5D5401C51F10001AB
:103C6000D1E7341A78EB0104CDD4401E71F1000184
:103C7000C9E75FEA4C0C5FEA9C5C0DD105D34FF0BD
:103C8000000001F00041BDE8F081BDE8F04170B5F1
:103C9000FFF7A8FE6DDBFFBEBDE8F0414FF000006E
:103CA000004970470000F87F10B591EA030F48BF44
:103CB00083F000433FF510AB841A71EB030C07D27D
:103CC00012198CF0004C43EB0C03001B61EB0C0150
:103CD000DFF8A4E14FEA1154A4EB135C1EEA430F92
:103CE00018BF9EEA445F00F0B08023EA6E035242A0
:103CF00021EA0451C3EB6E0338BF5B1EDCF1200EDA
:103D000025D322FA0CFE10EB0E0043FA0CFE41EB19
:103D10000E01CCF1200E03FA0EFE10EB0E0051F155
:103D20000001CCF1200E29D412FA0EF201EB04515D
:103D3000BDE8104058BF7047401C1CBFB2F1004F97
:103D4000704700280CBF491C20F00100704712EB9F
:103D5000020E43EB030218BF4FF0010E4EEA42027F
:103D6000ACF1200CDCF11E0E54D943FA0CFE10EB22
:103D70000E0051F1FF31CCF11E0ED5D50EF1010E22
:103D800012FA0EFE404141EB010101EB445C5FEA97
:103D90005C5C10D910EBDE7001EB045138BFBEF152
:103DA000004FBDE8104018BF704700280CBF491CE9
:103DB00020F00100704730D24FEAD42C11F50011E9
:103DC00024F400641BD0B1FA81F20B3AA41AA41EA9
:103DD000D2F12003914030FA03F31943904001EBF4
:103DE000CC71002C01EB0451BDE81040A8BF704716
:103DF00001F1C0414FF0000001F000417047B0FAFE
:103E000080F310FA03F100D110BDE41A173C480505
:103E1000C90AE4E701EB045110BD491001EB04515C
:103E2000BDE810404FEA300002E04FF0000170475B
:103E30004A0008BF0042F8D0B2F5001F28BF704703
:103E400001F000414FF0000070479EEA445F07D048
:103E500011EA5E0FBDE8104004BF0021002070474A
:103E6000BDE8104070B5FFF7BDFD00BF40DFF63E76
:103E700083F00041104670470000E0FF4FF04070B3
:103E8000E1EE100A70470CF00F03092B08BF082061
:103E900000F059800A2B0BD0082B18BF704708BFC1
:103EA0001CF0400F0AD04FF000004FF000017047A7
:103EB0001CF0400F18BF4FF0004070471CF0100F6F
:103EC00008D020F0704300F07F4242EAD3014FEA6D
:103ED0004370704700F0604021F07F4242EA0002E8
:103EE00001F07F4040EA727070474FF0FF0C4CF4D5
:103EF000E06C1CEA11531CBF9CEA030C9445C2BF42
:103F0000DA4201EB02517047002B0DD0BCF1000FDB
:103F10000FD0002A01F00041A4BF41F0E04141F080
:103F20007F614FF00000704701F000414FF000004A
:103F3000704750EA01334FF09B0C18BF4CF0806C77
:103F40007FF46AAA70471CF4801F11D01CF4E02F84
:103F500003D06FEACC31490070474FF04050EFF387
:103F6000008222F0704242EA000282F30088704729
:103F70004FF0000070470000000000000000010248
:103F80000304060708090000000000000000F03FDD
:103F9000000000000000F83F0000000000000000EA
:103FA0000000004003B8E23F0000000000000000F5
:103FB00006D0CF43EBFD4C3E033333333333E33F83
:103FC000FFAB6FDBB66DDB3F4D268F515555D53FAF
:103FD00001411DA96074D13F65DBC9934A86CD3F7D
:103FE000EF4E454A287ECA3F3E5555555555C53F6B
:103FF00093BDBE166CC166BF2CDE25AF6A56113F5D
:10400000F16BD2C541BDBBBED0A4BE726937663E5E
:104010000000000000000000384000080000002000
:1040200088000000C4010008C0400008880000208B
:10403000F0060000E001000800000000050000009C
:104040000000000000000000000000000000000070
:104050000000000000000000000000000000000060
:104060000000000000000000000000000000000050
:104070000000000000000000000000000000000040
:104080000000000000000000000000000000000030
:104090000000000000000000000000000000000020
:1040A0000000000000000000000000000000000010
:1040B0000100000010000000000000000024F400D7
:040000050800018965
:00000001FF
